{
  "_format": "hh-sol-artifact-1",
  "contractName": "VEP",
  "sourceName": "contracts/VEP.sol",
  "abi": [
    {
      "inputs": [
        {
          "internalType": "address",
          "name": "tokenAddress",
          "type": "address"
        }
      ],
      "stateMutability": "nonpayable",
      "type": "constructor"
    },
    {
      "inputs": [
        {
          "internalType": "address",
          "name": "from",
          "type": "address"
        },
        {
          "internalType": "address",
          "name": "tou",
          "type": "address"
        },
        {
          "internalType": "address",
          "name": "toc",
          "type": "address"
        },
        {
          "internalType": "uint256",
          "name": "aet",
          "type": "uint256"
        },
        {
          "internalType": "uint256",
          "name": "ucr",
          "type": "uint256"
        }
      ],
      "name": "distribute",
      "outputs": [],
      "stateMutability": "nonpayable",
      "type": "function"
    },
    {
      "inputs": [],
      "name": "token",
      "outputs": [
        {
          "internalType": "contract CASP",
          "name": "",
          "type": "address"
        }
      ],
      "stateMutability": "view",
      "type": "function"
    }
  ],
  "bytecode": "0x608060405234801561001057600080fd5b50604051610abf380380610abf833981810160405281019061003291906100db565b806000806101000a81548173ffffffffffffffffffffffffffffffffffffffff021916908373ffffffffffffffffffffffffffffffffffffffff16021790555050610108565b600080fd5b600073ffffffffffffffffffffffffffffffffffffffff82169050919050565b60006100a88261007d565b9050919050565b6100b88161009d565b81146100c357600080fd5b50565b6000815190506100d5816100af565b92915050565b6000602082840312156100f1576100f0610078565b5b60006100ff848285016100c6565b91505092915050565b6109a8806101176000396000f3fe608060405234801561001057600080fd5b50600436106100365760003560e01c806388f9b33a1461003b578063fc0c546a14610057575b600080fd5b6100556004803603810190610050919061046c565b610075565b005b61005f6103af565b60405161006c9190610546565b60405180910390f35b60008110158015610087575060648111155b6100c6576040517f08c379a00000000000000000000000000000000000000000000000000000000081526004016100bd906105be565b60405180910390fd5b6000606482846100d6919061060d565b6100e0919061067e565b9050600060648360646100f391906106af565b856100fe919061060d565b610108919061067e565b90508360008054906101000a900473ffffffffffffffffffffffffffffffffffffffff1673ffffffffffffffffffffffffffffffffffffffff1663dd62ed3e89306040518363ffffffff1660e01b81526004016101669291906106f2565b602060405180830381865afa158015610183573d6000803e3d6000fd5b505050506040513d601f19601f820116820180604052508101906101a79190610730565b10156101e8576040517f08c379a00000000000000000000000000000000000000000000000000000000081526004016101df906107a9565b60405180910390fd5b60008054906101000a900473ffffffffffffffffffffffffffffffffffffffff1673ffffffffffffffffffffffffffffffffffffffff166323b872dd8888856040518463ffffffff1660e01b8152600401610245939291906107d8565b6020604051808303816000875af1158015610264573d6000803e3d6000fd5b505050506040513d601f19601f820116820180604052508101906102889190610847565b6102c7576040517f08c379a00000000000000000000000000000000000000000000000000000000081526004016102be906108c0565b60405180910390fd5b60008054906101000a900473ffffffffffffffffffffffffffffffffffffffff1673ffffffffffffffffffffffffffffffffffffffff166323b872dd8887846040518463ffffffff1660e01b8152600401610324939291906107d8565b6020604051808303816000875af1158015610343573d6000803e3d6000fd5b505050506040513d601f19601f820116820180604052508101906103679190610847565b6103a6576040517f08c379a000000000000000000000000000000000000000000000000000000000815260040161039d90610952565b60405180910390fd5b50505050505050565b60008054906101000a900473ffffffffffffffffffffffffffffffffffffffff1681565b600080fd5b600073ffffffffffffffffffffffffffffffffffffffff82169050919050565b6000610403826103d8565b9050919050565b610413816103f8565b811461041e57600080fd5b50565b6000813590506104308161040a565b92915050565b6000819050919050565b61044981610436565b811461045457600080fd5b50565b60008135905061046681610440565b92915050565b600080600080600060a08688031215610488576104876103d3565b5b600061049688828901610421565b95505060206104a788828901610421565b94505060406104b888828901610421565b93505060606104c988828901610457565b92505060806104da88828901610457565b9150509295509295909350565b6000819050919050565b600061050c610507610502846103d8565b6104e7565b6103d8565b9050919050565b600061051e826104f1565b9050919050565b600061053082610513565b9050919050565b61054081610525565b82525050565b600060208201905061055b6000830184610537565b92915050565b600082825260208201905092915050565b7f5543522073686f756c64206265206265747765656e203020616e642031303000600082015250565b60006105a8601f83610561565b91506105b382610572565b602082019050919050565b600060208201905081810360008301526105d78161059b565b9050919050565b7f4e487b7100000000000000000000000000000000000000000000000000000000600052601160045260246000fd5b600061061882610436565b915061062383610436565b925082820261063181610436565b91508282048414831517610648576106476105de565b5b5092915050565b7f4e487b7100000000000000000000000000000000000000000000000000000000600052601260045260246000fd5b600061068982610436565b915061069483610436565b9250826106a4576106a361064f565b5b828204905092915050565b60006106ba82610436565b91506106c583610436565b92508282039050818111156106dd576106dc6105de565b5b92915050565b6106ec816103f8565b82525050565b600060408201905061070760008301856106e3565b61071460208301846106e3565b9392505050565b60008151905061072a81610440565b92915050565b600060208284031215610746576107456103d3565b5b60006107548482850161071b565b91505092915050565b7f496e73756666696369656e7420616c6c6f77616e636500000000000000000000600082015250565b6000610793601683610561565b915061079e8261075d565b602082019050919050565b600060208201905081810360008301526107c281610786565b9050919050565b6107d281610436565b82525050565b60006060820190506107ed60008301866106e3565b6107fa60208301856106e3565b61080760408301846107c9565b949350505050565b60008115159050919050565b6108248161080f565b811461082f57600080fd5b50565b6000815190506108418161081b565b92915050565b60006020828403121561085d5761085c6103d3565b5b600061086b84828501610832565b91505092915050565b7f5472616e7366657220746f2066697273742061646472657373206661696c6564600082015250565b60006108aa602083610561565b91506108b582610874565b602082019050919050565b600060208201905081810360008301526108d98161089d565b9050919050565b7f5472616e7366657220746f207365636f6e642061646472657373206661696c6560008201527f6400000000000000000000000000000000000000000000000000000000000000602082015250565b600061093c602183610561565b9150610947826108e0565b604082019050919050565b6000602082019050818103600083015261096b8161092f565b905091905056fea264697066735822122043ac1fe3bf5f02b72f896a1e395b4e6775e370aa88d4c169ba3d32a9cfe575ae64736f6c63430008180033",
  "linkReferences": {},
  "deployedLinkReferences": {}
}